:020000041000EA
:10000000000001083913001095160010F5150010B6
:1000100000000000000000000000000000000000E0
:100020000000000000000000000000001116001099
:100030000000000000000000991600109D1600103E
:1000400035100010591000107D100010A110001084
:10005000C5100010E91000100D1100103111001032
:10006000A1160010A5160010A9160010AD1600105C
:10007000B1160010B5160010B9160010BD1600100C
:1000800000B5012031490A6852080240002A01D017
:10009000022001E00968084000BD304801680800FE
:1000A000C007C00F704700B50100FF20002909D02C
:1000B000022907D22A4889004018001F0168080059
:1000C000C007C00FC0B200BD00002648006881080C
:1000D0000800C007C00F7047000010B504002000E2
:1000E000C0B203280BD318221F49204800F0CAFAD7
:1000F000D820C0001E490860002000F023FB1D48E6
:10010000E4B2A10040580007000F10BD000010B578
:1001100004002000C0B203280AD318221249134851
:1001200000F0B0FA144812490860002000F00AFB01
:100130001048E4B2A100405800098007800F10BDAC
:100140000E480068000EC0B270470000241526401B
:100150000A480068000AC0B27047000040152640F7
:100160004016264010002740FC130010F40500083C
:100170000C06000840122640EE0600000810204041
:1001800010B50400042C0BD318221149114800F0BB
:1001900079FAC920400010490860002000F0D2FA26
:1001A0000A48A10040584007400F010009B2042945
:1001B00007D10548A1004058C106C90E8020400063
:1001C000084300B210BD0000000126400012264086
:1001D00048140010F40500080C0600081F490968BF
:1001E0008A03920B0260090E0A00D207D20FC27175
:1001F000184909680A00D204D20C82800A00120C45
:10020000D2B20281090CC9B24181114909680F2299
:100210000B00134003730B091A4042730A0AD204FD
:10022000D20CC281090F8907890F01740A49096834
:100230000A0A5207520F82710A00120CD205D20D1F
:100240004282890F0A00D207D20F02757047000060
:1002500038152640341526403C15264030152640DA
:1002600000B502000120002A1AD0022A18D20E4836
:1002700092008018001F00684206520E0A601F227A
:10028000030A13404B60030C1A408A60020F920766
:10029000920F4A73C00E0200D207D20F0A730020D9
:1002A000C0B200BD000000000016264080B501006D
:1002B0008548182200F068FA01208449087000205F
:1002C00002BD00B582490968C90F002907D07F49DE
:1002D0000978002907D100210160032000BD002119
:1002E00001600320FAE77849096801600020F5E71A
:1002F00010B50400FFF7C4FE002803D100202060E1
:1003000003200BE071480078002804D06E48806814
:100310002060002002E000202060032010BD00B516
:100320006A490978002904D06749496801600020BA
:1003300002E000210160032000BD000000B58D49EE
:100340000968C90F002907D060490978002907D139
:1003500000210160032000BD002101600320FAE7B5
:100360005949C96801600020F5E7000000B58249DD
:100370000968C90F002907D054490978002907D115
:1003800000210160032000BD002101600320FAE785
:100390004D49096901600020F5E7000010B504002F
:1003A000FFF793FE002803D10020206003200BE01C
:1003B00046480078002804D0434840692060002067
:1003C00002E000202060032010BD000010B50C00EA
:1003D000C0B2FFF7D5FE00280CD0401E0ED0401E44
:1003E00010D087214900401A10D0401E12D0C01EE4
:1003F00014D017E02000FFF764FF16E02000FFF79D
:100400008EFF12E02000FFF773FF0EE02000FFF7E1
:1004100095FF0AE02000FFF7C1FF06E02000FFF78C
:10042000A5FF02E000202060032010BD80B5010080
:100430000020FFF7CBFF02BD80B500221300DBB226
:10044000834202D20A60012003E0401CC0B2FFF7E1
:10045000BDFF02BD30B587B004006846FFF7E6FF78
:100460000100C9B2002903D000212160C0B228E0F8
:1004700001A8FFF7B3FE01AD287C022803D1009844
:10048000206000201DE064480068C00F002808D0EC
:10049000FFF703FEC0B2002807D100202060032030
:1004A0000FE00098206000200BE00098019948437D
:1004B000A98800F083F9E979491C00F07FF92060F0
:1004C000002007B030BD0000DC0500082006000851
:1004D0001815264078B585B005000C00694628003F
:1004E000C0B2FFF7A9FF0100C9B2002903D0002163
:1004F0002160C0B23CE001A92800C0B2401CFFF757
:10050000AFFE01A8407B022803D1009820600020A4
:100510002EE0002630002900C0B2C9B2884202D2C3
:100520002660012024E02800C0B2401CFFF7BBFD7C
:10053000002801D0012000E03000C0B2002802D124
:100540002660032014E03548EDB2A9004058C00FE2
:1005500000280BD0009801994843029900F02EF929
:10056000039900F02BF92060002001E026600320B1
:1005700006B070BD081526400C15264010B50023A6
:10058000421E0400E4B2002C03D10800FFF762FF12
:100590000CE01400DBB2E4B2A34204D31000C0B2FA
:1005A000FFF798FF02E0C0B2FFF710FF10BD38B5AB
:1005B00004000D002000C0B2FFF78FFD6946C0B2F5
:1005C000FFF7DCFF0100C9B2002903D00021296038
:1005D000C0B20FE02000C0B2FFF799FDC0B2002802
:1005E00005D002280BD006D303280CD00FE00098CA
:1005F0002860002032BD009840082860F9E7009884
:1006000080082860F5E70098C0082860F1E700201E
:1006100028600320EEE70000301526400016264033
:100620001CB5040069460020FFF7C1FF0100C9B2F4
:10063000002903D000212160C0B209E0FFF780FD4E
:1006400001000098C9B2491C00F0B8F820600020F1
:1006500016BD1CB504006846FFF7E2FF0100C9B2F1
:10066000002901D0C0B208E0FFF772FD0100009838
:10067000491C00F0A3F82060002016BD80B5FFF7EC
:10068000E8FF02BD71B58B0709D0521E28D30B7845
:100690000370401C1B421FD0491C8B07F5D1121F51
:1006A0003ED3274CE50140C9331BB3432B4209D14C
:1006B000830716D140C0121F32D340C9331BB34346
:1006C0002B42F7D0121DFF231E4205D00670401C9E
:1006D000360A521E1E42F9D11100002200F0C6F85F
:1006E00071BDDB4216D0401E4670360A4680360C7D
:1006F0000671001D121F06D340C9331BB3432B42A2
:10070000F2D0401CDEE7401C0AE040C9331BB34373
:100710002B42D7D10680360C4680001D121FF4D222
:10072000121D0BD00B780370521E07D0401C491CC1
:100730001B42F7D10370401C521EFBD171BD00005B
:100740000101010100B501BEFEE780B50C4A0D496B
:100750000B68934210D00A6002684A6042688A605F
:100760008268CA60C2680A6102694A6142698A6134
:100770008269CA61C069086200F099F801BD000091
:10078000F3F2F1F0B805000870B4103A03D378C959
:10079000103A78C0FBD2530701D318C918C001D54D
:1007A00008C908C0D20704D30B880380891C801CA9
:1007B000002A01D50B78037070BC70470022030A31
:1007C0008B420BD203098B4219D243088B422ED2A3
:1007D000411A00D20146524110467047FF220902D9
:1007E0003FD012068B4205D3121209028B4201D36D
:1007F0001212090203098B4219D300E0090AC30946
:100800008B4201D3CB01C01A524183098B4201D3E1
:100810008B01C01A524143098B4201D34B01C01ACC
:10082000524103098B4201D30B01C01A5241C30844
:100830008B4201D3CB00C01A524183088B4201D3B3
:100840008B00C01A524143088B4201D34B00C01A9F
:100850005241884200D3401A5241CFD2014610463D
:10086000704708B500F026F808BD0000094205D021
:10087000830705D00270401C491EF9D17047000063
:100880001300103906D330B41400150010393CC0E1
:10089000FCD230BC490700D30CC000D504C089008D
:1008A00002D30280801C002900D50270704700B579
:1008B000FEE700007047000038B500F08DF9904960
:1008C0000124086803229043204308608D480A6889
:1008D00002400A608C490A6803239A4322430A6053
:1008E0000A6802400A6089490A6803239A4322433E
:1008F0000A600A6810400860854801680F22914329
:1009000021430160834801680722914301608248C6
:1009100001680722914304220A4302600168F02221
:100920009143C0220A4302600168C02292000A4338
:1009300002600168C02212010A4302600168774A1E
:100940000A408021490111430160754880252D0628
:100950000168294301607348016821400029FAD0E9
:100960000168490821400029FAD06F48016808222F
:100970000A4302606D480068800820400028F9D0D2
:100980006B496C480A6802400A606B490A681202A7
:10099000120A80235B0413430B600A68104008604E
:1009A000664801680722914302220A4302606448B4
:1009B0000168644A0A40802189001143016001688E
:1009C0007F22914328220A43026001685E4A0A405E
:1009D00080218902114301600168294301605B485D
:1009E000006820400028FAD0594801680722914346
:1009F0000160584908680F22904320430860302066
:100A0000C0430A6802400A600A682A430A605249E1
:100A10000A680F239A4322430A600A68104008605C
:100A200008682843086000F0C4F84C4801680D438A
:100A3000056001680C43046000F0B0F800F001F8B4
:100A400031BD38B586B0684645491822FFF79CFE8F
:100A50006846FFF72BFCC0B200280AD01822414993
:100A60004148FFF70FFEDB20404908600020FFF7F8
:100A700069FE3F4C2000FFF701FEC0B200280AD0FB
:100A8000182238493848FFF7FDFDDD203749086056
:100A90000020FFF757FE374D206828602868364948
:100AA00040183649FFF78AFE35490870354C2868EA
:100AB00035494018FA218900FFF780FE2060206840
:100AC000C0033249086007B030BD31480068800774
:100AD000800F704770B5040000F08EF80600FFF735
:100AE000F4FF032808D02B480460A9B22A48084321
:100AF0000321014326480160300000F081F870BDF9
:100B0000C4132040FFFCFFFF00132040801320404F
:100B1000000024400015264044152640FF8FFFFFAB
:100B20001C152640241526400000274010002740B1
:100B300008002040FF00FFFF08102040041226405C
:100B400000162640FFE0FFFFFFFFE0FF40162640B3
:100B5000081226404012264044122640081526401E
:100B600048160010A4130010F40500080C06000835
:100B700010060008140600083F420F0040420F0014
:100B80002206000818060008E70300001C060008FB
:100B900000122040000220400000FA0580B500F05D
:100BA0003FF813490A68032313430B6000F03CF835
:100BB00001BD80B500F034F80D490A6803239A435B
:100BC000012313430B600A6803239A430223134350
:100BD0000B6000F029F801BD80B5FFF7EAFF05487A
:100BE0000168490049080160FFF7D8FF01BD000016
:100BF00040C0264000C02640EFF3108072B6704718
:100C000080F3108870470000000000000000000022
:100C1000801C800803D0401C801EFCD100BF7047A0
:100C2000EFF3108072B6704780F3108870470000B1
:100C300000B5010009B2002905D40121C006C00E8B
:100C400081408848016000BDF0B5020012B2002A60
:100C500018D41822844B040024B2A408A4001C5900
:100C6000FF250600F6001640B540AC438901C9B225
:100C70000500ED002A409140214300B28008800029
:100C800019501CE00F22794C182503001BB21340A9
:100C9000083B9B089B00060036B23240083A920897
:100CA0009200A258FF260700FF002F40BE40B2432B
:100CB0008901C9B2C0000540A9401143E150F0BD0F
:100CC00080B500F005F800F092F800F0A9F801BD39
:100CD000FEB5684666490CC90CC0083908380026BC
:100CE00030000AE06A460300DBB2DB00D21852682B
:100CF000521C114000290ED1401C0100C9B200292C
:100D00000AD107216A460300DBB2DB00D2580A4051
:100D1000002AE7D0FEE7FEE7564C07202168014095
:100D2000002900D0FEE7544F3968491C08400028CC
:100D300000D0FEE7350024E068462900C9B2C900AA
:100D40004018416868462A00D2B2D200805800F0AC
:100D500044F815E030000028EED02168491E6846AE
:100D60002A00D2B2D200805800F037F86846290035
:100D7000C9B2C900401841683868401C00F02DF81D
:100D80006D1C2800C0B2002826D168462900C9B2CF
:100D9000C9004058002814D0206869462A00D2B201
:100DA000D200895888420AD368462900C9B2C900CE
:100DB000401840682168884201D30120CBE7300009
:100DC000C9E768462900C9B2C900401840682168CF
:100DD0008842BFD30120BEE7F7BD80B500220023C3
:100DE00002E00CC0083808308842FAD301BD30B5A3
:100DF000224880082249234A002308E01C00E4B26C
:100E0000A40014591D00EDB2AD004C515B1C1C0038
:100E10000500E4B2EDB2AC42F0D31B48016030BD36
:100E200010B510231121164800221C00E4B2A400C2
:100E30001459DBB29B00C4500B00DBB29B00D258AC
:100E4000C9B28900425001210020FFF7FDFE0021B8
:100E50000120FFF7F9FE0020FFF7EAFE0120FFF76F
:100E6000E7FE10BD00E100E000E400E01CED00E062
:100E70006C1600109C130010A013001080000000DE
:100E8000000700080000001008ED00E070B55F4B9F
:100E9000C018C00900015E4BC31804290CD21F25DD
:100EA0001C68CE002800B0408443D2B21540C80070
:100EB000854025431D600CE0FC311F255C68CE0099
:100EC0002800B0408443D2B21540C8008540254375
:100ED0005D6070BD00B5002A03D101228A404260E6
:100EE00002E001228A40826000BD30B403008C0021
:100EF0000F25596C2800A04081431540A5400D43A3
:100F00005D6430BC704730B4030001259C6C280040
:100F10008840844315408D4025439D6430BC704714
:100F200030B403000125DC6C280088408443154060
:100F30008D402543DD6430BC704730B403004C0065
:100F400010340325D96C2800A04081431540A540EA
:100F50000D43DD6430BC7047426901228A40426122
:100F60004069704730B4030001259C69280088401F
:100F7000844315408D4025439D6130BC704730B49B
:100F800003004C000325196C2800A0408143154044
:100F9000A5400D431D6430BC7047F8B50400002522
:100FA000002C30D01600002E2DD00F0032683900F2
:100FB0002000FFF78FFF327A39002000FFF766FF2D
:100FC000726939002000FFF79EFFB26939002000E6
:100FD000FFF7A6FFF26939002000FFF7AEFF726845
:100FE00039002000FFF781FFF26839002000FFF789
:100FF000C6FF39002000FFF7AFFF3269390020003B
:10100000FFF7B0FF00E0034D2800F2BD0000CFBFA6
:101010000000304001005A0000B5010009B200296B
:1010200005D40121C006C00E81404A48016000BDC0
:1010300000B5FEE780B54848006848480068C10F21
:10104000002905D046498005800D8000085880475A
:101050000020FFF7E1FF01BD80B54248006842482B
:101060000068C10F002905D03D498005800D800032
:10107000085880470120FFF7CFFF01BD80B53B48EE
:1010800000683B480068C10F002905D0344980053D
:10109000800D8000085880470220FFF7BDFF01BD8A
:1010A00080B53448006834480068C10F002905D075
:1010B0002B498005800D8000085880470320FFF7EA
:1010C000ABFF01BD80B52D4800682D480068C10FF9
:1010D000002905D022498005800D800008588047EE
:1010E0000420FFF799FF01BD80B526480068264817
:1010F0000068C10F002905D019498005800D8000C6
:10110000085880470520FFF787FF01BD80B51F48BD
:1011100000681F480068C10F002905D010498005EC
:10112000800D8000085880470620FFF775FF01BD3D
:1011300080B51848006818480068C10F002905D01C
:1011400007498005800D8000085880470720FFF779
:1011500063FF01BD80E200E0741600100011204022
:101160000000000878160010041120407C160010C2
:1011700008112040801600100C1120408416001029
:101180001011204088160010141120408C160010F9
:1011900018112040901600101C11204070B504005A
:1011A0000D00304E307800280BD0182229492A48EB
:1011B000FFF768FACF204000284908600020FFF7B9
:1011C000C1FA20002900012232708022520400233B
:1011D00099420AD301D8904207D3234A04000D0054
:1011E00022A003C80019694102E00200002000218A
:1011F0001B4B00241C601F4D2A60204A14600522EE
:101200001A601A68D203FCD51C600029DDD10028C1
:10121000DBD1347070BD38B50400174D2868002844
:101220000BD118220B490C48FFF72CFAFF20CA30CB
:101230000A4908600020FFF785FA28681049FFF77F
:10124000BDFA00212200002300F01CF8FFF7A6FFE2
:1012500031BD000094140010F40500080C060008CD
:1012600010E000E021060008FFFFFF00010000FF82
:10127000FFFFFFFF14E000E01006000818E000E0A8
:1012800040420F0030B4434351435D18010C0C0041
:10129000130C5C432D1980B2434392B25143002496
:1012A000C918644124040B04090C09195043C018DF
:1012B000694130BC7047F1B401684118436858086F
:1012C0000A1800988068DB0701D54B46C018914288
:1012D0002DD00D78491C032403262E4002D10E7810
:1012E000F61C491C2B090F2B07D10B780F33491C17
:1012F00003E00F78491C0770401C761EF9D1002BC3
:10130000E5D00E78491CAD082C40032C01D10C7897
:10131000491C24023419654244190025AE1E9E4220
:10132000D5D02678641C0670401C6D1CF6E700982A
:101330000C30F2BC7047000072B6104810490860CB
:10134000BFF34F8F0120C0040E490A6802430A60B0
:101350000D490A6802430A600C490A6802430A60A0
:10136000002000210D4A03C26A45FCD1084FB8474E
:10137000084FB847084FB847FEE7000000000010CC
:1013800008ED00E00013204080132040A01320400F
:10139000C10C0010611500102D16001000FF000890
:1013A000FFFF0008433A5C545649495F53616D7032
:1013B0006C655F4472697665725F4C6962726172D6
:1013C000795F372E312E305C747669696265316DD4
:1013D0005C7372635C73797374656D5C7265765F60
:1013E000625C73797374656D5F7476696962653187
:1013F0006D5F636D30706C75732E6300433A5C549F
:101400005649495F53616D706C655F4472697665DA
:10141000725F4C6962726172795F372E312E305C77
:10142000747669696265316D5C7372635C6472695C
:10143000766572735C737973636C6B5C63795F73ED
:101440007973636C6B2E6800433A5C545649495F6C
:1014500053616D706C655F4472697665725F4C694B
:1014600062726172795F372E312E305C74766969F1
:101470006265316D5C7372635C6472697665727308
:101480005C737973636C6B5C63795F737973636CA2
:101490006B2E6300433A5C545649495F53616D704B
:1014A0006C655F4472697665725F4C6962726172E5
:1014B000795F372E312E305C636F6D6D6F6E5C73AC
:1014C00072635C647269766572735C737973746954
:1014D000636B5C63795F7379737469636B2E63000C
:1014E00001228A40C260704710B5FFF7E5F962B685
:1014F0000848FFF7EFFA084C084A02212000FFF7DE
:101500004CFD0748FFF787FE02212000FFF7E8FFA8
:10151000F7E70000000008100004314084050008CF
:1015200050C3000070B40123002413E00168001DC3
:10153000194202D04D466918491E0C60091D121F40
:10154000042AFAD20D00960701D50C80AD1C1A4072
:1015500000D02C700268001D002AE7D170BC7047D3
:1015600010B5074979441831064C7C44163404E020
:10157000081D0A68891888470100A142F8D110BDEA
:1015800008000000240000009DFFFFFF6C00000029
:10159000B8050008000000001FFDFFFF2201000049
:1015A0003E0000000000000800F00EF8002801D006
:1015B000FFF7D6FF00BF00BF002000BF00BFFFF74E
:1015C00093FF00F003F800000020704780B500F0A2
:1015D00001F801BD0746384600F002F8FBE70000BD
:1015E00080B500BF00BF024A11001820ABBEFBE768
:1015F0002600020004207146084202D0EFF3098061
:1016000001E0EFF3088000B5004988474B07001060
:1016100004207146084201D0EFF30980EFF30880FF
:1016200000B50149884700BD611600100548014614
:1016300003B4684680F3098800BF00BF00BF00BF45
:10164000FFF7B2FFA5EDF5FE00127A0000000000E2
:101650000024F400008000000080000000800000F2
:101660008169891E0978C9B20160704700000008CD
:10167000FFFF000800000000000000000000000064
:10168000000000000000000000000000000000005A
:1016900000000000FEE70000FEE70000FEE700009B
:1016A000FEE70000FEE70000FEE70000FEE70000A6
:1016B000FEE70000FEE70000FEE70000FEE7F002A4
:1016C000FF3110001004F1FF04F1FF04F1FF04F1F9
:1016D000FF04F11F04120001F31D060001000000C9
:1016E00000000000000000000000000000000000FA
:1016F00000000000000000000000000000000000EA
:1017000000000000000000000000000000000000D9
:1017100000000000000000000000000000000000C9
:1017200000000000000000000000000000000000B9
:1017300000000000000000000000000000000000A9
:101740000000000000000000000000000000000099
:101750000000000000000000000000000000000089
:101760000000000000000000000000000000000079
:101770000000000000000000000000000000000069
:101780000000000000000000000000000000000059
:101790000000000000000000000000000000000049
:1017A0000000000000000000000000000000000039
:0317B00000000036
:040000051000162DA4
:00000001FF
